{
  "contractName": "MZNFT_ETH",
  "abi": [
    {
      "inputs": [],
      "stateMutability": "nonpayable",
      "type": "constructor"
    },
    {
      "anonymous": false,
      "inputs": [
        {
          "indexed": true,
          "internalType": "address",
          "name": "owner",
          "type": "address"
        },
        {
          "indexed": true,
          "internalType": "address",
          "name": "approved",
          "type": "address"
        },
        {
          "indexed": true,
          "internalType": "uint256",
          "name": "tokenId",
          "type": "uint256"
        }
      ],
      "name": "Approval",
      "type": "event"
    },
    {
      "anonymous": false,
      "inputs": [
        {
          "indexed": true,
          "internalType": "address",
          "name": "owner",
          "type": "address"
        },
        {
          "indexed": true,
          "internalType": "address",
          "name": "operator",
          "type": "address"
        },
        {
          "indexed": false,
          "internalType": "bool",
          "name": "approved",
          "type": "bool"
        }
      ],
      "name": "ApprovalForAll",
      "type": "event"
    },
    {
      "anonymous": false,
      "inputs": [
        {
          "indexed": true,
          "internalType": "address",
          "name": "from",
          "type": "address"
        },
        {
          "indexed": true,
          "internalType": "address",
          "name": "to",
          "type": "address"
        },
        {
          "indexed": true,
          "internalType": "uint256",
          "name": "tokenId",
          "type": "uint256"
        }
      ],
      "name": "Transfer",
      "type": "event"
    },
    {
      "inputs": [
        {
          "internalType": "uint256",
          "name": "",
          "type": "uint256"
        }
      ],
      "name": "Items",
      "outputs": [
        {
          "internalType": "uint256",
          "name": "id",
          "type": "uint256"
        },
        {
          "internalType": "string",
          "name": "name",
          "type": "string"
        },
        {
          "internalType": "address",
          "name": "creator",
          "type": "address"
        },
        {
          "internalType": "string",
          "name": "img_uri",
          "type": "string"
        }
      ],
      "stateMutability": "view",
      "type": "function",
      "constant": true
    },
    {
      "inputs": [
        {
          "internalType": "address",
          "name": "to",
          "type": "address"
        },
        {
          "internalType": "uint256",
          "name": "tokenId",
          "type": "uint256"
        }
      ],
      "name": "approve",
      "outputs": [],
      "stateMutability": "nonpayable",
      "type": "function"
    },
    {
      "inputs": [
        {
          "internalType": "address",
          "name": "owner",
          "type": "address"
        }
      ],
      "name": "balanceOf",
      "outputs": [
        {
          "internalType": "uint256",
          "name": "",
          "type": "uint256"
        }
      ],
      "stateMutability": "view",
      "type": "function",
      "constant": true
    },
    {
      "inputs": [
        {
          "internalType": "uint256",
          "name": "tokenId",
          "type": "uint256"
        }
      ],
      "name": "getApproved",
      "outputs": [
        {
          "internalType": "address",
          "name": "",
          "type": "address"
        }
      ],
      "stateMutability": "view",
      "type": "function",
      "constant": true
    },
    {
      "inputs": [
        {
          "internalType": "address",
          "name": "owner",
          "type": "address"
        },
        {
          "internalType": "address",
          "name": "operator",
          "type": "address"
        }
      ],
      "name": "isApprovedForAll",
      "outputs": [
        {
          "internalType": "bool",
          "name": "",
          "type": "bool"
        }
      ],
      "stateMutability": "view",
      "type": "function",
      "constant": true
    },
    {
      "inputs": [],
      "name": "name",
      "outputs": [
        {
          "internalType": "string",
          "name": "",
          "type": "string"
        }
      ],
      "stateMutability": "view",
      "type": "function",
      "constant": true
    },
    {
      "inputs": [
        {
          "internalType": "uint256",
          "name": "tokenId",
          "type": "uint256"
        }
      ],
      "name": "ownerOf",
      "outputs": [
        {
          "internalType": "address",
          "name": "",
          "type": "address"
        }
      ],
      "stateMutability": "view",
      "type": "function",
      "constant": true
    },
    {
      "inputs": [
        {
          "internalType": "address",
          "name": "from",
          "type": "address"
        },
        {
          "internalType": "address",
          "name": "to",
          "type": "address"
        },
        {
          "internalType": "uint256",
          "name": "tokenId",
          "type": "uint256"
        }
      ],
      "name": "safeTransferFrom",
      "outputs": [],
      "stateMutability": "nonpayable",
      "type": "function"
    },
    {
      "inputs": [
        {
          "internalType": "address",
          "name": "from",
          "type": "address"
        },
        {
          "internalType": "address",
          "name": "to",
          "type": "address"
        },
        {
          "internalType": "uint256",
          "name": "tokenId",
          "type": "uint256"
        },
        {
          "internalType": "bytes",
          "name": "_data",
          "type": "bytes"
        }
      ],
      "name": "safeTransferFrom",
      "outputs": [],
      "stateMutability": "nonpayable",
      "type": "function"
    },
    {
      "inputs": [
        {
          "internalType": "address",
          "name": "operator",
          "type": "address"
        },
        {
          "internalType": "bool",
          "name": "approved",
          "type": "bool"
        }
      ],
      "name": "setApprovalForAll",
      "outputs": [],
      "stateMutability": "nonpayable",
      "type": "function"
    },
    {
      "inputs": [
        {
          "internalType": "bytes4",
          "name": "interfaceId",
          "type": "bytes4"
        }
      ],
      "name": "supportsInterface",
      "outputs": [
        {
          "internalType": "bool",
          "name": "",
          "type": "bool"
        }
      ],
      "stateMutability": "view",
      "type": "function",
      "constant": true
    },
    {
      "inputs": [],
      "name": "symbol",
      "outputs": [
        {
          "internalType": "string",
          "name": "",
          "type": "string"
        }
      ],
      "stateMutability": "view",
      "type": "function",
      "constant": true
    },
    {
      "inputs": [
        {
          "internalType": "address",
          "name": "from",
          "type": "address"
        },
        {
          "internalType": "address",
          "name": "to",
          "type": "address"
        },
        {
          "internalType": "uint256",
          "name": "tokenId",
          "type": "uint256"
        }
      ],
      "name": "transferFrom",
      "outputs": [],
      "stateMutability": "nonpayable",
      "type": "function"
    },
    {
      "inputs": [
        {
          "internalType": "address",
          "name": "creator",
          "type": "address"
        },
        {
          "internalType": "string",
          "name": "uri",
          "type": "string"
        },
        {
          "internalType": "string",
          "name": "contentName",
          "type": "string"
        }
      ],
      "name": "mint",
      "outputs": [
        {
          "internalType": "uint256",
          "name": "",
          "type": "uint256"
        }
      ],
      "stateMutability": "nonpayable",
      "type": "function"
    },
    {
      "inputs": [
        {
          "internalType": "uint256",
          "name": "tokenId",
          "type": "uint256"
        }
      ],
      "name": "tokenURI",
      "outputs": [
        {
          "internalType": "string",
          "name": "",
          "type": "string"
        }
      ],
      "stateMutability": "view",
      "type": "function",
      "constant": true
    },
    {
      "inputs": [
        {
          "internalType": "uint256",
          "name": "tokenId",
          "type": "uint256"
        }
      ],
      "name": "getItem",
      "outputs": [
        {
          "components": [
            {
              "internalType": "uint256",
              "name": "id",
              "type": "uint256"
            },
            {
              "internalType": "string",
              "name": "name",
              "type": "string"
            },
            {
              "internalType": "address",
              "name": "creator",
              "type": "address"
            },
            {
              "internalType": "string",
              "name": "img_uri",
              "type": "string"
            }
          ],
          "internalType": "struct MZNFT_ETH.Item",
          "name": "",
          "type": "tuple"
        }
      ],
      "stateMutability": "view",
      "type": "function",
      "constant": true
    }
  ],
  "bytecode": "0x60806040523480156200001157600080fd5b506040518060400160405280600981526020017f4d5a4e46545f45544800000000000000000000000000000000000000000000008152506040518060400160405280600981526020017f4d5a4e46545f4554480000000000000000000000000000000000000000000000815250816000908051906020019062000096929190620000b8565b508060019080519060200190620000af929190620000b8565b505050620001cd565b828054620000c69062000197565b90600052602060002090601f016020900481019282620000ea576000855562000136565b82601f106200010557805160ff191683800117855562000136565b8280016001018555821562000136579182015b828111156200013557825182559160200191906001019062000118565b5b50905062000145919062000149565b5090565b5b80821115620001645760008160009055506001016200014a565b5090565b7f4e487b7100000000000000000000000000000000000000000000000000000000600052602260045260246000fd5b60006002820490506001821680620001b057607f821691505b60208210811415620001c757620001c662000168565b5b50919050565b612c9580620001dd6000396000f3fe608060405234801561001057600080fd5b50600436106101005760003560e01c80636352211e11610097578063a22cb46511610066578063a22cb465146102e8578063b88d4fde14610304578063c87b56dd14610320578063e985e9c51461035057610100565b80636352211e1461023a57806370a082311461026a57806395d89b411461029a57806399071190146102b857610100565b806317b47cc4116100d357806317b47cc41461019f57806323b872dd146101d25780633129e773146101ee57806342842e0e1461021e57610100565b806301ffc9a71461010557806306fdde0314610135578063081812fc14610153578063095ea7b314610183575b600080fd5b61011f600480360381019061011a9190611b0e565b610380565b60405161012c9190611b56565b60405180910390f35b61013d610462565b60405161014a9190611c0a565b60405180910390f35b61016d60048036038101906101689190611c62565b6104f4565b60405161017a9190611cd0565b60405180910390f35b61019d60048036038101906101989190611d17565b610579565b005b6101b960048036038101906101b49190611c62565b610691565b6040516101c99493929190611d66565b60405180910390f35b6101ec60048036038101906101e79190611db9565b6107f1565b005b61020860048036038101906102039190611c62565b610851565b6040516102159190611ede565b60405180910390f35b61023860048036038101906102339190611db9565b610a4a565b005b610254600480360381019061024f9190611c62565b610a6a565b6040516102619190611cd0565b60405180910390f35b610284600480360381019061027f9190611f00565b610b1c565b6040516102919190611f2d565b60405180910390f35b6102a2610bd4565b6040516102af9190611c0a565b60405180910390f35b6102d260048036038101906102cd919061207d565b610c66565b6040516102df9190611f2d565b60405180910390f35b61030260048036038101906102fd9190612134565b610d6d565b005b61031e60048036038101906103199190612215565b610d83565b005b61033a60048036038101906103359190611c62565b610de5565b6040516103479190611c0a565b60405180910390f35b61036a60048036038101906103659190612298565b610ed5565b6040516103779190611b56565b60405180910390f35b60007f80ac58cd000000000000000000000000000000000000000000000000000000007bffffffffffffffffffffffffffffffffffffffffffffffffffffffff1916827bffffffffffffffffffffffffffffffffffffffffffffffffffffffff1916148061044b57507f5b5e139f000000000000000000000000000000000000000000000000000000007bffffffffffffffffffffffffffffffffffffffffffffffffffffffff1916827bffffffffffffffffffffffffffffffffffffffffffffffffffffffff1916145b8061045b575061045a82610f69565b5b9050919050565b60606000805461047190612307565b80601f016020809104026020016040519081016040528092919081815260200182805461049d90612307565b80156104ea5780601f106104bf576101008083540402835291602001916104ea565b820191906000526020600020905b8154815290600101906020018083116104cd57829003601f168201915b5050505050905090565b60006104ff82610fd3565b61053e576040517f08c379a0000000000000000000000000000000000000000000000000000000008152600401610535906123ab565b60405180910390fd5b6004600083815260200190815260200160002060009054906101000a900473ffffffffffffffffffffffffffffffffffffffff169050919050565b600061058482610a6a565b90508073ffffffffffffffffffffffffffffffffffffffff168373ffffffffffffffffffffffffffffffffffffffff1614156105f5576040517f08c379a00000000000000000000000000000000000000000000000000000000081526004016105ec9061243d565b60405180910390fd5b8073ffffffffffffffffffffffffffffffffffffffff1661061461103f565b73ffffffffffffffffffffffffffffffffffffffff16148061064357506106428161063d61103f565b610ed5565b5b610682576040517f08c379a0000000000000000000000000000000000000000000000000000000008152600401610679906124cf565b60405180910390fd5b61068c8383611047565b505050565b60076020528060005260406000206000915090508060000154908060010180546106ba90612307565b80601f01602080910402602001604051908101604052809291908181526020018280546106e690612307565b80156107335780601f1061070857610100808354040283529160200191610733565b820191906000526020600020905b81548152906001019060200180831161071657829003601f168201915b5050505050908060020160009054906101000a900473ffffffffffffffffffffffffffffffffffffffff169080600301805461076e90612307565b80601f016020809104026020016040519081016040528092919081815260200182805461079a90612307565b80156107e75780601f106107bc576101008083540402835291602001916107e7565b820191906000526020600020905b8154815290600101906020018083116107ca57829003601f168201915b5050505050905084565b6108026107fc61103f565b82611100565b610841576040517f08c379a000000000000000000000000000000000000000000000000000000000815260040161083890612561565b60405180910390fd5b61084c8383836111de565b505050565b6108596119c1565b61086282610fd3565b6108a1576040517f08c379a0000000000000000000000000000000000000000000000000000000008152600401610898906125f3565b60405180910390fd5b60076000838152602001908152602001600020604051806080016040529081600082015481526020016001820180546108d990612307565b80601f016020809104026020016040519081016040528092919081815260200182805461090590612307565b80156109525780601f1061092757610100808354040283529160200191610952565b820191906000526020600020905b81548152906001019060200180831161093557829003601f168201915b505050505081526020016002820160009054906101000a900473ffffffffffffffffffffffffffffffffffffffff1673ffffffffffffffffffffffffffffffffffffffff1673ffffffffffffffffffffffffffffffffffffffff1681526020016003820180546109c190612307565b80601f01602080910402602001604051908101604052809291908181526020018280546109ed90612307565b8015610a3a5780601f10610a0f57610100808354040283529160200191610a3a565b820191906000526020600020905b815481529060010190602001808311610a1d57829003601f168201915b5050505050815250509050919050565b610a6583838360405180602001604052806000815250610d83565b505050565b6000806002600084815260200190815260200160002060009054906101000a900473ffffffffffffffffffffffffffffffffffffffff169050600073ffffffffffffffffffffffffffffffffffffffff168173ffffffffffffffffffffffffffffffffffffffff161415610b13576040517f08c379a0000000000000000000000000000000000000000000000000000000008152600401610b0a90612685565b60405180910390fd5b80915050919050565b60008073ffffffffffffffffffffffffffffffffffffffff168273ffffffffffffffffffffffffffffffffffffffff161415610b8d576040517f08c379a0000000000000000000000000000000000000000000000000000000008152600401610b8490612717565b60405180910390fd5b600360008373ffffffffffffffffffffffffffffffffffffffff1673ffffffffffffffffffffffffffffffffffffffff168152602001908152602001600020549050919050565b606060018054610be390612307565b80601f0160208091040260200160405190810160405280929190818152602001828054610c0f90612307565b8015610c5c5780601f10610c3157610100808354040283529160200191610c5c565b820191906000526020600020905b815481529060010190602001808311610c3f57829003601f168201915b5050505050905090565b6000610c726006611445565b6000610c7e600661145b565b9050610c8a8582611469565b60405180608001604052808281526020018481526020018673ffffffffffffffffffffffffffffffffffffffff1681526020018581525060076000838152602001908152602001600020600082015181600001556020820151816001019080519060200190610cfa9291906119ff565b5060408201518160020160006101000a81548173ffffffffffffffffffffffffffffffffffffffff021916908373ffffffffffffffffffffffffffffffffffffffff1602179055506060820151816003019080519060200190610d5e9291906119ff565b50905050809150509392505050565b610d7f610d7861103f565b8383611643565b5050565b610d94610d8e61103f565b83611100565b610dd3576040517f08c379a0000000000000000000000000000000000000000000000000000000008152600401610dca90612561565b60405180910390fd5b610ddf848484846117b0565b50505050565b6060610df082610fd3565b610e2f576040517f08c379a0000000000000000000000000000000000000000000000000000000008152600401610e26906125f3565b60405180910390fd5b600760008381526020019081526020016000206003018054610e5090612307565b80601f0160208091040260200160405190810160405280929190818152602001828054610e7c90612307565b8015610ec95780601f10610e9e57610100808354040283529160200191610ec9565b820191906000526020600020905b815481529060010190602001808311610eac57829003601f168201915b50505050509050919050565b6000600560008473ffffffffffffffffffffffffffffffffffffffff1673ffffffffffffffffffffffffffffffffffffffff16815260200190815260200160002060008373ffffffffffffffffffffffffffffffffffffffff1673ffffffffffffffffffffffffffffffffffffffff16815260200190815260200160002060009054906101000a900460ff16905092915050565b60007f01ffc9a7000000000000000000000000000000000000000000000000000000007bffffffffffffffffffffffffffffffffffffffffffffffffffffffff1916827bffffffffffffffffffffffffffffffffffffffffffffffffffffffff1916149050919050565b60008073ffffffffffffffffffffffffffffffffffffffff166002600084815260200190815260200160002060009054906101000a900473ffffffffffffffffffffffffffffffffffffffff1673ffffffffffffffffffffffffffffffffffffffff1614159050919050565b600033905090565b816004600083815260200190815260200160002060006101000a81548173ffffffffffffffffffffffffffffffffffffffff021916908373ffffffffffffffffffffffffffffffffffffffff160217905550808273ffffffffffffffffffffffffffffffffffffffff166110ba83610a6a565b73ffffffffffffffffffffffffffffffffffffffff167f8c5be1e5ebec7d5bd14f71427d1e84f3dd0314c0f7b2291e5b200ac8c7c3b92560405160405180910390a45050565b600061110b82610fd3565b61114a576040517f08c379a0000000000000000000000000000000000000000000000000000000008152600401611141906127a9565b60405180910390fd5b600061115583610a6a565b90508073ffffffffffffffffffffffffffffffffffffffff168473ffffffffffffffffffffffffffffffffffffffff1614806111c457508373ffffffffffffffffffffffffffffffffffffffff166111ac846104f4565b73ffffffffffffffffffffffffffffffffffffffff16145b806111d557506111d48185610ed5565b5b91505092915050565b8273ffffffffffffffffffffffffffffffffffffffff166111fe82610a6a565b73ffffffffffffffffffffffffffffffffffffffff1614611254576040517f08c379a000000000000000000000000000000000000000000000000000000000815260040161124b9061283b565b60405180910390fd5b600073ffffffffffffffffffffffffffffffffffffffff168273ffffffffffffffffffffffffffffffffffffffff1614156112c4576040517f08c379a00000000000000000000000000000000000000000000000000000000081526004016112bb906128cd565b60405180910390fd5b6112cf83838361180c565b6112da600082611047565b6001600360008573ffffffffffffffffffffffffffffffffffffffff1673ffffffffffffffffffffffffffffffffffffffff168152602001908152602001600020600082825461132a919061291c565b925050819055506001600360008473ffffffffffffffffffffffffffffffffffffffff1673ffffffffffffffffffffffffffffffffffffffff16815260200190815260200160002060008282546113819190612950565b92505081905550816002600083815260200190815260200160002060006101000a81548173ffffffffffffffffffffffffffffffffffffffff021916908373ffffffffffffffffffffffffffffffffffffffff160217905550808273ffffffffffffffffffffffffffffffffffffffff168473ffffffffffffffffffffffffffffffffffffffff167fddf252ad1be2c89b69c2b068fc378daa952ba7f163c4a11628f55a4df523b3ef60405160405180910390a4611440838383611811565b505050565b6001816000016000828254019250508190555050565b600081600001549050919050565b600073ffffffffffffffffffffffffffffffffffffffff168273ffffffffffffffffffffffffffffffffffffffff1614156114d9576040517f08c379a00000000000000000000000000000000000000000000000000000000081526004016114d0906129f2565b60405180910390fd5b6114e281610fd3565b15611522576040517f08c379a000000000000000000000000000000000000000000000000000000000815260040161151990612a5e565b60405180910390fd5b61152e6000838361180c565b6001600360008473ffffffffffffffffffffffffffffffffffffffff1673ffffffffffffffffffffffffffffffffffffffff168152602001908152602001600020600082825461157e9190612950565b92505081905550816002600083815260200190815260200160002060006101000a81548173ffffffffffffffffffffffffffffffffffffffff021916908373ffffffffffffffffffffffffffffffffffffffff160217905550808273ffffffffffffffffffffffffffffffffffffffff16600073ffffffffffffffffffffffffffffffffffffffff167fddf252ad1be2c89b69c2b068fc378daa952ba7f163c4a11628f55a4df523b3ef60405160405180910390a461163f60008383611811565b5050565b8173ffffffffffffffffffffffffffffffffffffffff168373ffffffffffffffffffffffffffffffffffffffff1614156116b2576040517f08c379a00000000000000000000000000000000000000000000000000000000081526004016116a990612aca565b60405180910390fd5b80600560008573ffffffffffffffffffffffffffffffffffffffff1673ffffffffffffffffffffffffffffffffffffffff16815260200190815260200160002060008473ffffffffffffffffffffffffffffffffffffffff1673ffffffffffffffffffffffffffffffffffffffff16815260200190815260200160002060006101000a81548160ff0219169083151502179055508173ffffffffffffffffffffffffffffffffffffffff168373ffffffffffffffffffffffffffffffffffffffff167f17307eab39ab6107e8899845ad3d59bd9653f200f220920489ca2b5937696c31836040516117a39190611b56565b60405180910390a3505050565b6117bb8484846111de565b6117c784848484611816565b611806576040517f08c379a00000000000000000000000000000000000000000000000000000000081526004016117fd90612b5c565b60405180910390fd5b50505050565b505050565b505050565b60006118378473ffffffffffffffffffffffffffffffffffffffff1661199e565b15611991578373ffffffffffffffffffffffffffffffffffffffff1663150b7a0261186061103f565b8786866040518563ffffffff1660e01b81526004016118829493929190612bd1565b6020604051808303816000875af19250505080156118be57506040513d601f19601f820116820180604052508101906118bb9190612c32565b60015b611941573d80600081146118ee576040519150601f19603f3d011682016040523d82523d6000602084013e6118f3565b606091505b50600081511415611939576040517f08c379a000000000000000000000000000000000000000000000000000000000815260040161193090612b5c565b60405180910390fd5b805181602001fd5b63150b7a0260e01b7bffffffffffffffffffffffffffffffffffffffffffffffffffffffff1916817bffffffffffffffffffffffffffffffffffffffffffffffffffffffff191614915050611996565b600190505b949350505050565b6000808273ffffffffffffffffffffffffffffffffffffffff163b119050919050565b60405180608001604052806000815260200160608152602001600073ffffffffffffffffffffffffffffffffffffffff168152602001606081525090565b828054611a0b90612307565b90600052602060002090601f016020900481019282611a2d5760008555611a74565b82601f10611a4657805160ff1916838001178555611a74565b82800160010185558215611a74579182015b82811115611a73578251825591602001919060010190611a58565b5b509050611a819190611a85565b5090565b5b80821115611a9e576000816000905550600101611a86565b5090565b6000604051905090565b600080fd5b600080fd5b60007fffffffff0000000000000000000000000000000000000000000000000000000082169050919050565b611aeb81611ab6565b8114611af657600080fd5b50565b600081359050611b0881611ae2565b92915050565b600060208284031215611b2457611b23611aac565b5b6000611b3284828501611af9565b91505092915050565b60008115159050919050565b611b5081611b3b565b82525050565b6000602082019050611b6b6000830184611b47565b92915050565b600081519050919050565b600082825260208201905092915050565b60005b83811015611bab578082015181840152602081019050611b90565b83811115611bba576000848401525b50505050565b6000601f19601f8301169050919050565b6000611bdc82611b71565b611be68185611b7c565b9350611bf6818560208601611b8d565b611bff81611bc0565b840191505092915050565b60006020820190508181036000830152611c248184611bd1565b905092915050565b6000819050919050565b611c3f81611c2c565b8114611c4a57600080fd5b50565b600081359050611c5c81611c36565b92915050565b600060208284031215611c7857611c77611aac565b5b6000611c8684828501611c4d565b91505092915050565b600073ffffffffffffffffffffffffffffffffffffffff82169050919050565b6000611cba82611c8f565b9050919050565b611cca81611caf565b82525050565b6000602082019050611ce56000830184611cc1565b92915050565b611cf481611caf565b8114611cff57600080fd5b50565b600081359050611d1181611ceb565b92915050565b60008060408385031215611d2e57611d2d611aac565b5b6000611d3c85828601611d02565b9250506020611d4d85828601611c4d565b9150509250929050565b611d6081611c2c565b82525050565b6000608082019050611d7b6000830187611d57565b8181036020830152611d8d8186611bd1565b9050611d9c6040830185611cc1565b8181036060830152611dae8184611bd1565b905095945050505050565b600080600060608486031215611dd257611dd1611aac565b5b6000611de086828701611d02565b9350506020611df186828701611d02565b9250506040611e0286828701611c4d565b9150509250925092565b611e1581611c2c565b82525050565b600082825260208201905092915050565b6000611e3782611b71565b611e418185611e1b565b9350611e51818560208601611b8d565b611e5a81611bc0565b840191505092915050565b611e6e81611caf565b82525050565b6000608083016000830151611e8c6000860182611e0c565b5060208301518482036020860152611ea48282611e2c565b9150506040830151611eb96040860182611e65565b5060608301518482036060860152611ed18282611e2c565b9150508091505092915050565b60006020820190508181036000830152611ef88184611e74565b905092915050565b600060208284031215611f1657611f15611aac565b5b6000611f2484828501611d02565b91505092915050565b6000602082019050611f426000830184611d57565b92915050565b600080fd5b600080fd5b7f4e487b7100000000000000000000000000000000000000000000000000000000600052604160045260246000fd5b611f8a82611bc0565b810181811067ffffffffffffffff82111715611fa957611fa8611f52565b5b80604052505050565b6000611fbc611aa2565b9050611fc88282611f81565b919050565b600067ffffffffffffffff821115611fe857611fe7611f52565b5b611ff182611bc0565b9050602081019050919050565b82818337600083830152505050565b600061202061201b84611fcd565b611fb2565b90508281526020810184848401111561203c5761203b611f4d565b5b612047848285611ffe565b509392505050565b600082601f83011261206457612063611f48565b5b813561207484826020860161200d565b91505092915050565b60008060006060848603121561209657612095611aac565b5b60006120a486828701611d02565b935050602084013567ffffffffffffffff8111156120c5576120c4611ab1565b5b6120d18682870161204f565b925050604084013567ffffffffffffffff8111156120f2576120f1611ab1565b5b6120fe8682870161204f565b9150509250925092565b61211181611b3b565b811461211c57600080fd5b50565b60008135905061212e81612108565b92915050565b6000806040838503121561214b5761214a611aac565b5b600061215985828601611d02565b925050602061216a8582860161211f565b9150509250929050565b600067ffffffffffffffff82111561218f5761218e611f52565b5b61219882611bc0565b9050602081019050919050565b60006121b86121b384612174565b611fb2565b9050828152602081018484840111156121d4576121d3611f4d565b5b6121df848285611ffe565b509392505050565b600082601f8301126121fc576121fb611f48565b5b813561220c8482602086016121a5565b91505092915050565b6000806000806080858703121561222f5761222e611aac565b5b600061223d87828801611d02565b945050602061224e87828801611d02565b935050604061225f87828801611c4d565b925050606085013567ffffffffffffffff8111156122805761227f611ab1565b5b61228c878288016121e7565b91505092959194509250565b600080604083850312156122af576122ae611aac565b5b60006122bd85828601611d02565b92505060206122ce85828601611d02565b9150509250929050565b7f4e487b7100000000000000000000000000000000000000000000000000000000600052602260045260246000fd5b6000600282049050600182168061231f57607f821691505b60208210811415612333576123326122d8565b5b50919050565b7f4552433732313a20617070726f76656420717565727920666f72206e6f6e657860008201527f697374656e7420746f6b656e0000000000000000000000000000000000000000602082015250565b6000612395602c83611b7c565b91506123a082612339565b604082019050919050565b600060208201905081810360008301526123c481612388565b9050919050565b7f4552433732313a20617070726f76616c20746f2063757272656e74206f776e6560008201527f7200000000000000000000000000000000000000000000000000000000000000602082015250565b6000612427602183611b7c565b9150612432826123cb565b604082019050919050565b600060208201905081810360008301526124568161241a565b9050919050565b7f4552433732313a20617070726f76652063616c6c6572206973206e6f74206f7760008201527f6e6572206e6f7220617070726f76656420666f7220616c6c0000000000000000602082015250565b60006124b9603883611b7c565b91506124c48261245d565b604082019050919050565b600060208201905081810360008301526124e8816124ac565b9050919050565b7f4552433732313a207472616e736665722063616c6c6572206973206e6f74206f60008201527f776e6572206e6f7220617070726f766564000000000000000000000000000000602082015250565b600061254b603183611b7c565b9150612556826124ef565b604082019050919050565b6000602082019050818103600083015261257a8161253e565b9050919050565b7f45524337323155524953746f726167653a2055524920717565727920666f722060008201527f6e6f6e6578697374656e7420746f6b656e000000000000000000000000000000602082015250565b60006125dd603183611b7c565b91506125e882612581565b604082019050919050565b6000602082019050818103600083015261260c816125d0565b9050919050565b7f4552433732313a206f776e657220717565727920666f72206e6f6e657869737460008201527f656e7420746f6b656e0000000000000000000000000000000000000000000000602082015250565b600061266f602983611b7c565b915061267a82612613565b604082019050919050565b6000602082019050818103600083015261269e81612662565b9050919050565b7f4552433732313a2062616c616e636520717565727920666f7220746865207a6560008201527f726f206164647265737300000000000000000000000000000000000000000000602082015250565b6000612701602a83611b7c565b915061270c826126a5565b604082019050919050565b60006020820190508181036000830152612730816126f4565b9050919050565b7f4552433732313a206f70657261746f7220717565727920666f72206e6f6e657860008201527f697374656e7420746f6b656e0000000000000000000000000000000000000000602082015250565b6000612793602c83611b7c565b915061279e82612737565b604082019050919050565b600060208201905081810360008301526127c281612786565b9050919050565b7f4552433732313a207472616e736665722066726f6d20696e636f72726563742060008201527f6f776e6572000000000000000000000000000000000000000000000000000000602082015250565b6000612825602583611b7c565b9150612830826127c9565b604082019050919050565b6000602082019050818103600083015261285481612818565b9050919050565b7f4552433732313a207472616e7366657220746f20746865207a65726f2061646460008201527f7265737300000000000000000000000000000000000000000000000000000000602082015250565b60006128b7602483611b7c565b91506128c28261285b565b604082019050919050565b600060208201905081810360008301526128e6816128aa565b9050919050565b7f4e487b7100000000000000000000000000000000000000000000000000000000600052601160045260246000fd5b600061292782611c2c565b915061293283611c2c565b925082821015612945576129446128ed565b5b828203905092915050565b600061295b82611c2c565b915061296683611c2c565b9250827fffffffffffffffffffffffffffffffffffffffffffffffffffffffffffffffff0382111561299b5761299a6128ed565b5b828201905092915050565b7f4552433732313a206d696e7420746f20746865207a65726f2061646472657373600082015250565b60006129dc602083611b7c565b91506129e7826129a6565b602082019050919050565b60006020820190508181036000830152612a0b816129cf565b9050919050565b7f4552433732313a20746f6b656e20616c7265616479206d696e74656400000000600082015250565b6000612a48601c83611b7c565b9150612a5382612a12565b602082019050919050565b60006020820190508181036000830152612a7781612a3b565b9050919050565b7f4552433732313a20617070726f766520746f2063616c6c657200000000000000600082015250565b6000612ab4601983611b7c565b9150612abf82612a7e565b602082019050919050565b60006020820190508181036000830152612ae381612aa7565b9050919050565b7f4552433732313a207472616e7366657220746f206e6f6e20455243373231526560008201527f63656976657220696d706c656d656e7465720000000000000000000000000000602082015250565b6000612b46603283611b7c565b9150612b5182612aea565b604082019050919050565b60006020820190508181036000830152612b7581612b39565b9050919050565b600081519050919050565b600082825260208201905092915050565b6000612ba382612b7c565b612bad8185612b87565b9350612bbd818560208601611b8d565b612bc681611bc0565b840191505092915050565b6000608082019050612be66000830187611cc1565b612bf36020830186611cc1565b612c006040830185611d57565b8181036060830152612c128184612b98565b905095945050505050565b600081519050612c2c81611ae2565b92915050565b600060208284031215612c4857612c47611aac565b5b6000612c5684828501612c1d565b9150509291505056fea2646970667358221220d3f2be04b3c9dab3bd8b4cdcdd692896d1893f67daeae50eb91f78c581a23a9b64736f6c634300080b0033",
  "immutableReferences": {},
  "source": "// SPDX-License-Identifier: MIT\r\npragma solidity ^0.8.0;\r\n\r\nimport \"@openzeppelin/contracts/token/ERC721/ERC721.sol\";\r\nimport \"@openzeppelin/contracts/token/ERC721/extensions/ERC721Enumerable.sol\";\r\nimport \"@openzeppelin/contracts/token/ERC721/extensions/ERC721URIStorage.sol\";\r\nimport \"@openzeppelin/contracts/utils/Counters.sol\";\r\nimport \"@openzeppelin/contracts/access/Ownable.sol\";\r\nimport \"@openzeppelin/contracts/utils/Strings.sol\";\r\nimport \"@openzeppelin/contracts/utils/Address.sol\";\r\n\r\ncontract MZNFT_ETH is ERC721{\r\n    using Counters for Counters.Counter;\r\n\r\n    Counters.Counter private _tokenIds;\r\n\r\n    struct Item {\r\n        uint256 id;\r\n        string name;\r\n        address creator;\r\n        string img_uri;//metadata url\r\n    }\r\n\r\n    mapping(uint256 => Item) public Items; //id => Item\r\n\r\n    constructor () ERC721(\"MZNFT_ETH\", \"MZNFT_ETH\") {}\r\n\r\n    function mint(address creator, string memory uri, string memory contentName) public returns (uint256){\r\n        _tokenIds.increment();\r\n        uint256 newItemId = _tokenIds.current();\r\n        _mint(creator, newItemId);\r\n        //approve(marketplace, newItemId);\r\n\r\n        Items[newItemId] = Item({\r\n        id: newItemId,\r\n        name: contentName,\r\n        creator: creator,\r\n        img_uri: uri\r\n        });\r\n\r\n        return newItemId;\r\n    }\r\n\r\n    function tokenURI(uint256 tokenId) public view override returns (string memory) {\r\n        require(_exists(tokenId), \"ERC721URIStorage: URI query for nonexistent token\");\r\n        return Items[tokenId].img_uri;\r\n    }\r\n\r\n    function getItem(uint256 tokenId) public view returns (Item memory) {\r\n        require(_exists(tokenId), \"ERC721URIStorage: URI query for nonexistent token\");\r\n        return Items[tokenId];\r\n    }\r\n\r\n}",
  "sourcePath": "C:\\source\\mzc\\BlockchainAPI_backend\\contracts\\MZNFT_ETH.sol",
  "compiler": {
    "name": "solc",
    "version": "0.8.11+commit.d7f03943.Emscripten.clang"
  },
  "schemaVersion": "3.4.4",
  "updatedAt": "2022-06-26T07:38:19.180Z",
  "networkType": "ethereum",
  "devdoc": {
    "kind": "dev",
    "methods": {
      "approve(address,uint256)": {
        "details": "See {IERC721-approve}."
      },
      "balanceOf(address)": {
        "details": "See {IERC721-balanceOf}."
      },
      "getApproved(uint256)": {
        "details": "See {IERC721-getApproved}."
      },
      "isApprovedForAll(address,address)": {
        "details": "See {IERC721-isApprovedForAll}."
      },
      "name()": {
        "details": "See {IERC721Metadata-name}."
      },
      "ownerOf(uint256)": {
        "details": "See {IERC721-ownerOf}."
      },
      "safeTransferFrom(address,address,uint256)": {
        "details": "See {IERC721-safeTransferFrom}."
      },
      "safeTransferFrom(address,address,uint256,bytes)": {
        "details": "See {IERC721-safeTransferFrom}."
      },
      "setApprovalForAll(address,bool)": {
        "details": "See {IERC721-setApprovalForAll}."
      },
      "supportsInterface(bytes4)": {
        "details": "See {IERC165-supportsInterface}."
      },
      "symbol()": {
        "details": "See {IERC721Metadata-symbol}."
      },
      "tokenURI(uint256)": {
        "details": "See {IERC721Metadata-tokenURI}."
      },
      "transferFrom(address,address,uint256)": {
        "details": "See {IERC721-transferFrom}."
      }
    },
    "version": 1
  },
  "userdoc": {
    "kind": "user",
    "methods": {},
    "version": 1
  }
}